:1000000009C00EC00DC00CC00BC00AC009C008C09A
:1000100007C006C011241FBECFE9CDBF28D09BC0AA
:10002000EFCFCF93DF93CDB7DD27C450CDBF19827B
:100030001A821B821C820BC089819A81AB81BC8190
:100040000196A11DB11D89839A83AB83BC838981ED
:100050009A81AB81BC81813A26E8920721E0A20710
:10006000B10550F3CC5FCDBFDF91CF910895CF9311
:10007000DF93CDB7DD2787E390E027E330E0F90198
:1000800020812061FC01208386E290E023E0FC01D6
:10009000208387E290E0FC01108287E290E027E273
:1000A00030E0F90120812062FC01208387E290E0AA
:1000B00027E230E0F90120812260FC01208387E201
:1000C00090E027E230E0F90120812160FC012083EB
:1000D00083E290E0FC01108286E290E026E230E0CC
:1000E000F90120812068FC01208386E290E026E26D
:1000F00030E0F90120812062FC01208386E290E05B
:1001000026E230E0F90120812064FC01208385E2B1
:1001100090E0FC0180818138A0F088E390E028E342
:1001200030E0F90120812061FC0120837ADF88E33F
:1001300090E028E330E0F90120812F7EFC0120834C
:10014000E6CF88E390E028E330E0F90120812F7EBC
:0A015000FC012083DCCFF894FFCF00
:00000001FF
